{
  "contractName": "Faucet",
  "abi": [
    {
      "inputs": [],
      "name": "numOfFunders",
      "outputs": [
        {
          "internalType": "uint256",
          "name": "",
          "type": "uint256"
        }
      ],
      "stateMutability": "view",
      "type": "function",
      "constant": true
    },
    {
      "inputs": [],
      "name": "owner",
      "outputs": [
        {
          "internalType": "address",
          "name": "",
          "type": "address"
        }
      ],
      "stateMutability": "view",
      "type": "function",
      "constant": true
    },
    {
      "inputs": [],
      "name": "test3",
      "outputs": [
        {
          "internalType": "uint256",
          "name": "",
          "type": "uint256"
        }
      ],
      "stateMutability": "pure",
      "type": "function",
      "constant": true
    },
    {
      "inputs": [],
      "name": "testNum",
      "outputs": [
        {
          "internalType": "uint256",
          "name": "",
          "type": "uint256"
        }
      ],
      "stateMutability": "view",
      "type": "function",
      "constant": true
    },
    {
      "stateMutability": "payable",
      "type": "receive",
      "payable": true
    },
    {
      "inputs": [],
      "name": "emitLog",
      "outputs": [
        {
          "internalType": "bytes32",
          "name": "",
          "type": "bytes32"
        }
      ],
      "stateMutability": "pure",
      "type": "function",
      "constant": true
    },
    {
      "inputs": [
        {
          "internalType": "address",
          "name": "newOwner",
          "type": "address"
        }
      ],
      "name": "transferOwnership",
      "outputs": [],
      "stateMutability": "nonpayable",
      "type": "function"
    },
    {
      "inputs": [],
      "name": "addFunds",
      "outputs": [],
      "stateMutability": "payable",
      "type": "function",
      "payable": true
    },
    {
      "inputs": [],
      "name": "test1",
      "outputs": [],
      "stateMutability": "nonpayable",
      "type": "function"
    },
    {
      "inputs": [],
      "name": "test2",
      "outputs": [],
      "stateMutability": "nonpayable",
      "type": "function"
    },
    {
      "inputs": [
        {
          "internalType": "uint256",
          "name": "withdrawAmount",
          "type": "uint256"
        }
      ],
      "name": "withdraw",
      "outputs": [],
      "stateMutability": "nonpayable",
      "type": "function"
    },
    {
      "inputs": [],
      "name": "getAllFunders",
      "outputs": [
        {
          "internalType": "address[]",
          "name": "",
          "type": "address[]"
        }
      ],
      "stateMutability": "view",
      "type": "function",
      "constant": true
    },
    {
      "inputs": [
        {
          "internalType": "uint8",
          "name": "index",
          "type": "uint8"
        }
      ],
      "name": "getFunderAtIndex",
      "outputs": [
        {
          "internalType": "address",
          "name": "",
          "type": "address"
        }
      ],
      "stateMutability": "view",
      "type": "function",
      "constant": true
    }
  ],
  "bytecode": "0x608060405234801561001057600080fd5b50336000806101000a81548173ffffffffffffffffffffffffffffffffffffffff021916908373ffffffffffffffffffffffffffffffffffffffff1602179055506103e8600181905550610c7b806100696000396000f3fe6080604052600436106100ab5760003560e01c80638da5cb5b116100645780638da5cb5b146101a1578063a26759cb146101cc578063ae28f1ed146101d6578063af7f2c9b14610201578063f2fde38b1461022c578063f42c13bf14610255576100b2565b80630a8e8e01146100b75780630a93cf33146100e25780632e1a7d4d1461011f57806366e41cb7146101485780636b59084d1461015f5780636fbbb55d14610176576100b2565b366100b257005b600080fd5b3480156100c357600080fd5b506100cc610280565b6040516100d99190610a58565b60405180910390f35b3480156100ee57600080fd5b506101096004803603810190610104919061089f565b610289565b60405161011691906109c0565b60405180910390f35b34801561012b57600080fd5b5061014660048036038101906101419190610876565b6102c9565b005b34801561015457600080fd5b5061015d61035f565b005b34801561016b57600080fd5b506101746103ef565b005b34801561018257600080fd5b5061018b61047f565b60405161019891906109db565b60405180910390f35b3480156101ad57600080fd5b506101b66105c5565b6040516101c391906109c0565b60405180910390f35b6101d46105e9565b005b3480156101e257600080fd5b506101eb610709565b6040516101f89190610a58565b60405180910390f35b34801561020d57600080fd5b5061021661070f565b6040516102239190610a58565b60405180910390f35b34801561023857600080fd5b50610253600480360381019061024e919061084d565b610715565b005b34801561026157600080fd5b5061026a6107e6565b60405161027791906109fd565b60405180910390f35b60006064905090565b6000600460008360ff16815260200190815260200160002060009054906101000a900473ffffffffffffffffffffffffffffffffffffffff169050919050565b8067016345785d8a00008110610314576040517f08c379a000000000000000000000000000000000000000000000000000000000815260040161030b90610a18565b60405180910390fd5b3373ffffffffffffffffffffffffffffffffffffffff166108fc839081150290604051600060405180830381858888f1935050505015801561035a573d6000803e3d6000fd5b505050565b60008054906101000a900473ffffffffffffffffffffffffffffffffffffffff1673ffffffffffffffffffffffffffffffffffffffff163373ffffffffffffffffffffffffffffffffffffffff16146103ed576040517f08c379a00000000000000000000000000000000000000000000000000000000081526004016103e490610a38565b60405180910390fd5b565b60008054906101000a900473ffffffffffffffffffffffffffffffffffffffff1673ffffffffffffffffffffffffffffffffffffffff163373ffffffffffffffffffffffffffffffffffffffff161461047d576040517f08c379a000000000000000000000000000000000000000000000000000000000815260040161047490610a38565b60405180910390fd5b565b6060600060025467ffffffffffffffff8111156104c5577f4e487b7100000000000000000000000000000000000000000000000000000000600052604160045260246000fd5b6040519080825280602002602001820160405280156104f35781602001602082028036833780820191505090505b50905060005b6002548110156105bd576004600082815260200190815260200160002060009054906101000a900473ffffffffffffffffffffffffffffffffffffffff16828281518110610570577f4e487b7100000000000000000000000000000000000000000000000000000000600052603260045260246000fd5b602002602001019073ffffffffffffffffffffffffffffffffffffffff16908173ffffffffffffffffffffffffffffffffffffffff168152505080806105b590610b10565b9150506104f9565b508091505090565b60008054906101000a900473ffffffffffffffffffffffffffffffffffffffff1681565b6000339050600360008273ffffffffffffffffffffffffffffffffffffffff1673ffffffffffffffffffffffffffffffffffffffff16815260200190815260200160002060009054906101000a900460ff166107065760006002600081548092919061065490610b10565b9190505590506001600360008473ffffffffffffffffffffffffffffffffffffffff1673ffffffffffffffffffffffffffffffffffffffff16815260200190815260200160002060006101000a81548160ff021916908315150217905550816004600083815260200190815260200160002060006101000a81548173ffffffffffffffffffffffffffffffffffffffff021916908373ffffffffffffffffffffffffffffffffffffffff160217905550505b50565b60015481565b60025481565b60008054906101000a900473ffffffffffffffffffffffffffffffffffffffff1673ffffffffffffffffffffffffffffffffffffffff163373ffffffffffffffffffffffffffffffffffffffff16146107a3576040517f08c379a000000000000000000000000000000000000000000000000000000000815260040161079a90610a38565b60405180910390fd5b806000806101000a81548173ffffffffffffffffffffffffffffffffffffffff021916908373ffffffffffffffffffffffffffffffffffffffff16021790555050565b60007f48656c6c6f20576f726c64000000000000000000000000000000000000000000905090565b60008135905061081d81610c00565b92915050565b60008135905061083281610c17565b92915050565b60008135905061084781610c2e565b92915050565b60006020828403121561085f57600080fd5b600061086d8482850161080e565b91505092915050565b60006020828403121561088857600080fd5b600061089684828501610823565b91505092915050565b6000602082840312156108b157600080fd5b60006108bf84828501610838565b91505092915050565b60006108d483836108e0565b60208301905092915050565b6108e981610abd565b82525050565b6108f881610abd565b82525050565b600061090982610a83565b6109138185610a9b565b935061091e83610a73565b8060005b8381101561094f57815161093688826108c8565b975061094183610a8e565b925050600181019050610922565b5085935050505092915050565b61096581610acf565b82525050565b6000610978602383610aac565b915061098382610b88565b604082019050919050565b600061099b600a83610aac565b91506109a682610bd7565b602082019050919050565b6109ba81610af9565b82525050565b60006020820190506109d560008301846108ef565b92915050565b600060208201905081810360008301526109f581846108fe565b905092915050565b6000602082019050610a12600083018461095c565b92915050565b60006020820190508181036000830152610a318161096b565b9050919050565b60006020820190508181036000830152610a518161098e565b9050919050565b6000602082019050610a6d60008301846109b1565b92915050565b6000819050602082019050919050565b600081519050919050565b6000602082019050919050565b600082825260208201905092915050565b600082825260208201905092915050565b6000610ac882610ad9565b9050919050565b6000819050919050565b600073ffffffffffffffffffffffffffffffffffffffff82169050919050565b6000819050919050565b600060ff82169050919050565b6000610b1b82610af9565b91507fffffffffffffffffffffffffffffffffffffffffffffffffffffffffffffffff821415610b4e57610b4d610b59565b5b600182019050919050565b7f4e487b7100000000000000000000000000000000000000000000000000000000600052601160045260246000fd5b7f43616e6e6f74207769746864726177206d6f7265207468616e20302e3120657460008201527f6865720000000000000000000000000000000000000000000000000000000000602082015250565b7f4f6e6c79204f776e657200000000000000000000000000000000000000000000600082015250565b610c0981610abd565b8114610c1457600080fd5b50565b610c2081610af9565b8114610c2b57600080fd5b50565b610c3781610b03565b8114610c4257600080fd5b5056fea2646970667358221220ecbbbdca4eb824d774eaed4a4d657a00392cec142c0c4a68740e496ce783cdd664736f6c63430008040033",
  "immutableReferences": {},
  "source": "// SPDX-License-Identifier: MIT\r\npragma solidity >=0.4.22 <0.9.0;\r\n\r\nimport \"./Owned.sol\";\r\nimport \"./Logger.sol\";\r\nimport \"./IFaucet.sol\";\r\n\r\n\r\ncontract Faucet is Owned, Logger, IFaucet{\r\n\r\n  uint public numOfFunders;\r\n  mapping(address => bool) private funders;\r\n  mapping(uint => address) private lutFunders;\r\n\r\n  modifier limitWithdraw(uint withdrawAmount){\r\n    require(withdrawAmount < 100000000000000000, \r\n    \"Cannot withdraw more than 0.1 ether\"\r\n    );\r\n    _;\r\n  }\r\n\r\n  receive() external payable {}\r\n\r\n  function emitLog() public override pure returns(bytes32){\r\n    return \"Hello World\";\r\n  }\r\n\r\n\r\n  function transferOwnership(address newOwner)external onlyOwner{\r\n    owner = newOwner;\r\n  }\r\n\r\n  function addFunds() override external payable{\r\n    address funder = msg.sender;\r\n\r\n    if(!funders[funder]){\r\n      uint index = numOfFunders++;\r\n      funders[funder]=true;\r\n      lutFunders[index]=funder;\r\n    }\r\n  }\r\n\r\n  function test1() external onlyOwner{\r\n    // some mangaing stuff that only admin should have access to\r\n  }\r\n\r\n  function test2() external onlyOwner{\r\n    // some mangaing stuff that only admin should have access to\r\n  }\r\n\r\n  function withdraw(uint withdrawAmount) override external limitWithdraw(withdrawAmount){\r\n\r\n    payable(msg.sender).transfer(withdrawAmount); \r\n  }\r\n\r\n  \r\n  function getAllFunders() external view returns (address[] memory) {\r\n    address[] memory _funders = new address[](numOfFunders);\r\n\r\n    for (uint i = 0; i < numOfFunders; i++) {\r\n      _funders[i] = lutFunders[i];\r\n    }\r\n\r\n    return _funders;\r\n  }\r\n\r\n  function getFunderAtIndex(uint8 index) external view returns(address) {\r\n    return lutFunders[index];\r\n  }\r\n\r\n}\r\n\r\n\r\n// COMMANDS TO RUN\r\n/*\r\ntruffle migrate --reset\r\ntruffle console\r\n\r\nconst instance = await Faucet.deployed();\r\nresult = await instance.test3()\r\nresult.toString()\r\ninstance.emitLog()\r\n\r\ninstance.addFunds({from:accounts[0],value:\"2000000000000000000\"})\r\ninstance.addFunds({from:accounts[1],value:\"2000000000000000000\"})\r\n\r\ninstance.test1({from:accounts[0]})\r\n\r\ninstance.withdraw(\"500000000000000000\",{from:accounts[1]})\r\n\r\ninstance.getFunderAtIndex(0)\r\ninstance.getAllFunders()\r\n*/",
  "sourcePath": "D:\\Work\\Udemy\\Solidity and Ethereum with Next\\Solidity-and-Ethereum-With-Next\\faucet\\contracts\\Faucet.sol",
  "compiler": {
    "name": "solc",
    "version": "0.8.4+commit.c7e474f2.Emscripten.clang"
  },
  "schemaVersion": "3.4.16",
  "updatedAt": "2023-12-10T11:24:01.716Z",
  "networkType": "ethereum",
  "devdoc": {
    "kind": "dev",
    "methods": {},
    "version": 1
  },
  "userdoc": {
    "kind": "user",
    "methods": {},
    "version": 1
  }
}